:100000000C940E010C9436010C9436010C943601BC
:100010000C9436010C9436010C9436010C94360184
:100020000C9436010C94AB030C9430090C943601FB
:100030000C9436010C9436010C9436010C94360164
:100040000C94E6080C9436010C946D070C94470749
:100050000C9436010C9436010C9436010C94360144
:100060000C9436010C9436010C9436010C94360134
:100070000C9436010C9436010C9421070C94FB0669
:100080000C9436010C9436010C943601AB07BC0776
:10009000BC079D07A007A407A707BC07BC07AF07BD
:1000A000B307B707000039003600330030002100E5
:1000B000200063000000000A0B0C0000000000009C
:1000C0000104050600000000000000000000000020
:1000D0000000000000000000000000000000000020
:1000E00000000000000000000044454255475F4208
:1000F0004545505F4C4F4E470044454255475F428F
:100100004545505F4D454449554D0044454255478E
:100110005F424545505F53484F525400504F57453A
:10012000524F46460033563300564F4C543200422D
:1001300041545400564F4C54004150353130204604
:1001400069726D7761726520627920444F394A483F
:100150004200494E464F00302E312D6465760056E0
:10016000455253494F4E00564552004552524F5248
:10017000004552524F522028556E6B6E6F776E209D
:10018000436D6429004F4B0041542B0001020408C9
:100190001020408001020408102040800810010255
:1001A0000408102040800102010204081020408051
:1001B00004804020100804020101020408102040BD
:1001C0008000003B003800350032002300620065EB
:1001D00000050505050505050502020202020202E9
:1001E00002070704040404040404040707030303C8
:1001F00003030303030701010101010101010606D5
:100200000606060606060200003A003700340031F2
:100210000022006100640000990F1E1011241FBE0F
:10022000CFEFD0E1DEBFCDBF23E0A6EBB1E001C050
:100230001D92AE37B207E1F711E0A0E0B1E0EAEAC3
:10024000FAE202C005900D92A63BB107D9F711E082
:10025000CDE0D1E004C02197FE010E940913CC300B
:10026000D107C9F70E947F090C9448150C9400002F
:100270000E940615FF920F931F93CF93DF9300D038
:1002800000D0CDB7DEB720910101283121F02F3FFA
:1002900009F0C4C004C0E6E0F2E0049148C028E1DF
:1002A00020930101E6E0F2E004910F3F09F4B6C0AB
:1002B000013001F1023009F03AC015BC15BC25B57A
:1002C000286025BD25B5216025BDE9EEF1E0E4916A
:1002D000F0E0EE0FFF1FEF53FE4F25913491309366
:1002E0005E0320935D03E4EAF1E0E491E0935C03B4
:1002F00002E01FC01FBC1EBC2EB528602EBD2EB54F
:1003000021602EBDE9EEF1E0E491F0E0EE0FFF1F79
:10031000EF53FE4F25913491309361032093600396
:10032000E4EAF1E0E491E0935F0301E002C007FD3D
:1003300075C09B01AC0161E088E129833A834B835E
:100340005C830E94ED0729813A814B815C81002307
:1003500029F0023059F4E5EEFE2E02C072E7F72EC6
:1003600010E085B5887F836085BD20C0013069F4C9
:100370008EB5887F81608EBD2115310541055105FF
:10038000C1F16BECF62E1CE116C0033061F48091D4
:100390008A00887F816080938A002115310541059C
:1003A000510579F73BC09BECF92E1CE12115310575
:1003B0004105510559F0A0EDB7E00E94811128EEEA
:1003C00033E040E050E00E945F1103C02FEF3FEFA9
:1003D000A9010130A1F0023009F5F3BC20936203BA
:1003E00030936303409364035093650387B7806839
:1003F00014C02FEF3FEFA9018BECF82E1CE18F2DDD
:10040000912F9BBD8ABD2093660330936703409371
:1004100068035093690387B7806187BF0F900F907F
:100420000F900F90DF91CF911F910F91FF90089542
:10043000CF92DF92EF92FF920F931F93CF93DF93B0
:10044000EC016A017B0160E070E488E390E0A701C1
:1004500096010E945F1189019A0101501109210939
:10046000310936952795179507959801E889F989F7
:1004700082E0808301151041A8F0E889F989108293
:1004800060E070E28CE190E0A70196010E945F11AC
:10049000DA01C9010197A109B109B695A795979508
:1004A00087959C01EC85FD853083EE85FF85208353
:1004B000188EEC89FD8986E08083EA89FB8980813A
:1004C00080618083EA89FB89808188608083EA89F2
:1004D000FB89808180688083EA89FB8980818F7DA8
:1004E0008083DF91CF911F910F91FF90EF90DF906C
:1004F000CF9008950F931F93CF93DF938C01C0E0AB
:10050000D0E0F801EC0FFD1F6491662371F0E091DB
:100510005D02F0915E020190F081E02D8DE592E0A8
:100520000995892B11F02196ECCF66E871E08DE5F5
:1005300092E00E946A098C0F9D1FDF91CF911F915D
:100540000F9108950F931F930E94DA08609365023C
:10055000709366028093670290936802E0915D0257
:10056000F0915E020680F781E02D8DE592E009951D
:1005700097FF1FC00E94DA08009165021091660281
:100580002091670230916802DC01CB01801B910B46
:10059000A20BB30B009161021091620220916302E1
:1005A0003091640280179107A207B307B8F28FEF6A
:1005B0009FEF1F910F910895EF92FF920F931F935A
:1005C000CF93DF938617970729F1FC0124813581AA
:1005D000FB014481558124173507F1F4232BD1F019
:1005E000DC01CD91DC91008111818991882391F00A
:1005F000082E000C990B0E940B157C01F8018191CB
:100600008F01082E000C990B0E940B15E816F906B5
:1006100061F302C081E001C080E0DF91CF911F91C2
:100620000F91FF90EF9008950F931F93CF93DF9357
:10063000EC0188819981009729F02A813B81261756
:10064000370788F48B016F5F7F4F0E943C1400973F
:1006500061F0998388831B830A832C813D81232B3E
:1006600011F4FC01108281E001C080E0DF91CF91A4
:100670001F910F910895CF93DF93EC0188819981A9
:10068000009711F00E94A413198218821D821C8207
:100690001B821A82DF91CF910895EF92FF920F9300
:1006A0001F93CF93DF93EC017B018A01BA010E9473
:1006B0001403811104C0CE010E943B0307C01D83B7
:1006C0000C83B701888199810E942715CE01DF91A3
:1006D000CF911F910F91FF90EF900895FC018081C1
:1006E00091810C94A413EF92FF920F931F93CF93D9
:1006F000DF93EC01198218821B821A821D821C82F0
:100700006115710509F18B01CB010E942F107C014D
:10071000BC01CE010E941403811109C0CE01DF91FA
:10072000CF911F910F91FF90EF900C943B03FD82AE
:10073000EC82B80188819981DF91CF911F910F914F
:10074000FF90EF900C942810DF91CF911F910F91A3
:10075000FF90EF9008951F920F920FB60F92112401
:100760002F933F934F935F936F937F938F939F93B9
:10077000AF93BF93EF93FF938091620390916303D4
:10078000A0916403B0916503892B8A2B8B2B51F1C7
:1007900080915C03E0915D03F0915E039081892775
:1007A00080838091620390916303A0916403B09170
:1007B0006503181619061A061B06A4F58091620334
:1007C00090916303A0916403B09165030197A1091F
:1007D000B1098093620390936303A0936403B09381
:1007E000650320C080910101E6E0F2E0E4919FEF13
:1007F00090930101E13081F068F0E23081F497B725
:100800009F7797BF90E495BD95B5987F946095BD0F
:1008100013BC05C017BE03C097B79F7E97BF60E0AB
:100820000E94BD07FF91EF91BF91AF919F918F9172
:100830007F916F915F914F913F912F910F900FBEDC
:100840000F901F9018954F925F926F927F92EF9248
:10085000FF920F931F93CF93DF93CDB7DEB7A1978E
:100860000FB6F894DEBF0FBECDBF7C01FA01CB01FD
:1008700019A2223008F42AE08E010F5D1F4F422E8C
:10088000512C612C712CBF01A30192010E945F11B8
:10089000F901CA01015011096A3014F4605D01C008
:1008A000695CD8016C93232B242B252B61F7B801AD
:1008B000C7010E946A09A1960FB6F894DEBF0FBE69
:1008C000CDBFDF91CF911F910F91FF90EF907F905F
:1008D0006F905F904F9008954F925F926F927F92CA
:1008E0008F929F92AF92BF92CF92DF92EF92FF9240
:1008F0006B017C01B42E9B01AC010E94E5128823A0
:1009000019F069E971E027C026013701E89477F80A
:100910002FEF3FEF4FE75FE7C301B2010E94E512FF
:1009200081110DC02FEF3FEF4FE75FE7C301B20129
:100930000E943B1018161CF46DE971E00CC02FEFFB
:100940003FEF4FE75FE4C701B6010E94E0121816BF
:1009500094F461EA71E080EC91E0FF90EF90DF9019
:10096000CF90BF90AF909F908F907F906F905F904F
:100970004F900C946A092FEF3FEF4FE75FECC701F0
:10098000B6010E943B1087FDE4CF20E030E0A901D2
:10099000C701B6010E943B1087FF11C0E091C00162
:1009A000F091C1010190F081E02D6DE280EC91E0C9
:1009B00009954C01F7FAF094F7F8F09402C0812CF5
:1009C000912CA12C60E070E080E09FE3AB1441F03B
:1009D00020E030E040E251E40E943F12A394F6CFC1
:1009E0009B01AC01C701B6010E94D3112B013C0150
:1009F0000E94B1126B017C010E9440109B01AC016E
:100A0000C301B2010E94D2112B013C012AE0B701BF
:100A1000A60180EC91E00E9423047C01E80CF91C03
:100A2000BB2041F067E971E080EC91E00E946A0927
:100A3000E80EF91EDB2CDD2031F120E030E040E251
:100A400051E4C301B2010E94A1102B013C010E949C
:100A5000B1124B01A12CB12C2AE0B501A40180EC0C
:100A600091E00E942304E80EF91EC501B4010E9422
:100A700040109B01AC01C301B2010E94D2112B01B5
:100A80003C01DA94D8CFC701FF90EF90DF90CF9070
:100A9000BF90AF909F908F907F906F905F904F909E
:100AA0000895CF92DF92EF92FF92CF93DF93AB0145
:100AB000BC0177FF23C06A017B01E0915D02F091E8
:100AC0005E020190F081E02D6DE28DE592E00995E6
:100AD000EC0144275527BA014C195D096E097F09BD
:100AE0002AE08DE592E00E9423048C0F9D1FDF9188
:100AF000CF91FF90EF90DF90CF9008952AE08DE5A1
:100B000092E0DF91CF91FF90EF90DF90CF900C9427
:100B100023040F931F93CF93DF93EC010E946A0984
:100B20008C0166E871E0CE010E946A09800F911F76
:100B3000DF91CF911F910F9108950C946A09FC01E8
:100B4000A089B1898C91A689B78982FD0FC09C913B
:100B5000818D8F5F8F73228D821749F0218DDF0188
:100B6000A20FB11D5D969C93818F08958C9108957D
:100B7000FC01918D828D981761F0828DDF01A80FA5
:100B8000B11D5D968C91928D9F5F9F73928F90E0C7
:100B900008958FEF9FEF0895FC01918D828D981736
:100BA00031F0828DE80FF11D858D90E008958FEF73
:100BB0009FEF0895FC01918D228D892F90E0805C3C
:100BC0009F4F821B91098F739927089580EC91E0C4
:100BD0000E94DA0521E0892B09F420E0822F089594
:100BE0008DE592E00E94DA0521E0892B09F420E0EE
:100BF000822F0895FC01848DDF01A80FB11DA35A37
:100C0000BF4F2C91848D90E001968F739927848F2C
:100C1000A689B7892C93A089B1898C9180648C9323
:100C2000938D848D981306C00288F389E02D80810E
:100C30008F7D80830895EF92FF920F931F93CF9340
:100C4000DF93EC0181E0888F9B8D8C8D981305C01C
:100C5000E889F989808185FD24C0F62E0B8D10E08E
:100C60000F5F1F4F0F731127E02E8C8DE8120CC001
:100C70000FB607FCFACFE889F989808185FFF5CFA7
:100C8000CE010E94FA05F1CF8B8DFE01E80FF11D18
:100C9000E35AFF4FF0820B8FEA89FB8980818062E3
:100CA00007C0EE89FF896083E889F98980818064C3
:100CB000808381E090E0DF91CF911F910F91FF90B1
:100CC000EF900895CF93DF93EC01888D8823C9F0CE
:100CD000EA89FB89808185FD05C0A889B9898C9145
:100CE00086FD0FC00FB607FCF5CF808185FFF2CFE0
:100CF000A889B9898C9185FFEDCFCE010E94FA05B4
:100D0000E7CFDF91CF91089580E090E0892B21F02B
:100D10000E94F005811109C080E090E0892B51F01C
:100D20000E94E605811104C008950E940000F4CFDE
:100D30000C94000008953FB7F89480917603909149
:100D40007703A0917803B091790322B706B600FE2D
:100D500005C02F3F19F00196A11DB11D3FBFBA2F4D
:100D6000A92F982F8827820F911DA11DB11DBC01AD
:100D7000CD0142E0660F771F881F991F4A95D1F772
:100D80000895DC015896ED91FC915997309719F030
:100D9000CB01BA0109940895DC015696ED91FC91BE
:100DA0005797309709F009940895DC015496ED9116
:100DB000FC915597309709F00994089508950C9483
:100DC000A413613D774081059105A0F080917003E7
:100DD000811110C081E08093700364EF71E080E0C6
:100DE00090E00E943A016DE871E08DE592E00E948A
:100DF0008905DE9808951F920F920FB60F92112465
:100E00002F933F934F935F936F937F938F939F9312
:100E1000AF93BF93EF93FF9380EC91E00E94FA05AC
:100E2000FF91EF91BF91AF919F918F917F916F91C2
:100E30005F914F913F912F910F900FBE0F901F9098
:100E400018951F920F920FB60F9211242F933F9374
:100E50004F935F936F937F938F939F93AF93BF93C2
:100E6000EF93FF9380EC91E00E949F05FF91EF913B
:100E7000BF91AF919F918F917F916F915F914F91B2
:100E80003F912F910F900FBE0F901F9018951F92BA
:100E90000F920FB60F9211242F933F934F935F93AE
:100EA0006F937F938F939F93AF93BF93EF93FF9332
:100EB0008DE592E00E94FA05FF91EF91BF91AF910D
:100EC0009F918F917F916F915F914F913F912F9162
:100ED0000F900FBE0F901F9018951F920F920FB694
:100EE0000F9211242F933F934F935F936F937F93B0
:100EF0008F939F93AF93BF93EF93FF938DE592E012
:100F00000E949F05FF91EF91BF91AF919F918F91AB
:100F10007F916F915F914F913F912F910F900FBEF5
:100F20000F901F90189590E0FC013197EC30F1057F
:100F300018F5EA5BFF4F0C9409138FB58F7702C049
:100F40008FB58F7D8FBD08958FB5877FFBCF85B51A
:100F50008F7D85BD089583B78F7D83BF0895809170
:100F60008B008F7707C080918B008F7D03C08091AD
:100F70008B00877F80938B0008951F93CF93DF931F
:100F8000282F30E0F901EC54FF4F8491F901E45728
:100F9000FE4FD491F901EF52FE4FC491CC23C9F01A
:100FA000162F81110E949307EC2FF0E0EE0FFF1F28
:100FB000EF53FE4FA591B4918FB7F894111105C06E
:100FC0009C91ED2FE095E92302C0EC91ED2BEC9381
:100FD0008FBFDF91CF911F910895CF93DF9390E062
:100FE000FC01E457FE4F2491FC01EF52FE4F849127
:100FF000882361F190E0880F991FFC01E95FFD4FA4
:10100000C591D491FC01EF53FE4FA591B4916111AC
:1010100009C09FB7F8948881209582238883EC913A
:101020002E230BC0623061F49FB7F8943881822F71
:10103000809583238883EC912E2B2C939FBF06C031
:101040008FB7F894E8812E2B28838FBFDF91CF9143
:1010500008958F929F92AF92BF92CF92DF92EF92BC
:10106000FF926B017C010E949B064B015C01C11445
:10107000D104E104F104F1F00E949B06DC01CB01F4
:1010800088199909AA09BB09883E9340A105B105B1
:1010900070F321E0C21AD108E108F10888EE880E49
:1010A00083E0981EA11CB11CC114D104E104F10419
:1010B00019F7DDCFFF90EF90DF90CF90BF90AF900A
:1010C0009F908F9008950F931F93CF93DF9364E6C3
:1010D00070E080E090E00E943A0161E087E10E94C8
:1010E000BD076AE070E080E090E00E942908CBE84C
:1010F000D0E088818460888365EA71E08DE592E0C4
:101100000E94890502E810E08FE590E0F8019183E4
:101110008083488150E060E070E020E18DE592E05E
:101120000E94230466E871E08DE592E00E946A095E
:1011300040918A0050E060E070E020E18DE592E0AF
:101140000E94230466E871E08DE592E00E946A093E
:10115000F8014081518160E070E020E18DE592E08E
:101160000E94230466E871E08DE592E00E946A091E
:1011700064EF71E080E090E00E94290884EA98EC36
:10118000F8019183808364EF71E080E090E00E9439
:10119000290888818B7F888360E087E10E94BD07F2
:1011A0006EEA71E08DE592E0DF91CF911F910F9192
:1011B0000C9489052FB7F8946091720370917303B2
:1011C00080917403909175032FBF08951F920F9221
:1011D0000FB60F9211242F933F938F939F93AF934A
:1011E000BF938091720390917303A0917403B091A7
:1011F00075033091710325E1230F2D3720F40196FB
:10120000A11DB11D05C028E9230F0296A11DB11D26
:10121000209371038093720390937303A0937403DC
:10122000B09375038091760390917703A091780332
:10123000B09179030196A11DB11D8093760390931F
:101240007703A0937803B0937903BF91AF919F91F7
:101250008F913F912F910F900FBE0F901F90189577
:101260001F920F920FB60F9211248F9384EF84BDBB
:101270008F910F900FBE0F901F9018950895CF92E9
:10128000DF92EF92FF920F931F93CF93DF936C0146
:101290007A018B01C0E0D0E0CE15DF0589F0D801DE
:1012A0006D918D01D601ED91FC910190F081E02DC1
:1012B000C6010995892B11F47E0102C02196ECCF5D
:1012C000C701DF91CF911F910F91FF90EF90DF90B9
:1012D000CF9008956115710579F0FB010190002010
:1012E000E9F73197AF01461B570BDC01ED91FC91FB
:1012F0000280F381E02D099480E090E00895CF937F
:10130000DF93CDB7DEB7A0970FB6F894DEBF0FBE60
:10131000CDBF789483B7806483BF83B7886083BF71
:1013200083B7846083BF87B7816087BF1EBC8EB5DB
:1013300082608EBD8EB581608EBD8FB581608FBDA0
:1013400085B5846085BD85B5806485BD80918A0042
:10135000826080938A0080918A00816080938A00F5
:1013600080918B00816080938B00329A319A309803
:10137000379A1AB810923E0310923F03109240031E
:10138000109241031092FC021092FD021092FE0294
:101390001092FF0260ED77E080E090E00E94290863
:1013A0008DE592E090933D0380933C0340E052EC46
:1013B00061E070E00E9418020E94DA086093FC026B
:1013C0007093FD028093FE029093FF0266E271E04B
:1013D00080913C0390913D030E949D056AE070E07E
:1013E00080E090E00E94290811E010931003D69A43
:1013F000DE9A61E08AE10E94ED0761E088E10E94E7
:10140000ED0740E052EC61E070E08DE592E00E9473
:10141000180240E855E260E070E080EC91E00E9444
:10142000180283E698E090935703809356038EED5D
:1014300096E0909359038093580381EE96E0909341
:101440005B0380935A0389E28093440384E190E034
:10145000A0E0B0E08093450390934603A093470338
:10146000B093480382E090E090934A03809349034D
:1014700062E089E20E94ED0710934B0368E371E09C
:101480008DE592E00E94890561E471E080EC91E0D5
:101490000E9489051092B60186E696EEA0E1B3E4BB
:1014A0008093B7019093B801A093B901B093BA01AA
:1014B0008093BB019093BC01A093BD01B093BE018A
:1014C0001093BF0161E087E10E94ED0761E087E2D0
:1014D0000E94ED0761E087E20E94BD0764EF71E0C2
:1014E00080E090E00E9429086FE471E080EC91E0D8
:1014F0000E949D054091B60150E060E070E02AE056
:1015000080EC91E00E9423046FE571E080EC91E0B3
:101510000E949D056091B7017091B8018091B90159
:101520009091BA0144E00E946C046FE571E080EC98
:1015300091E00E949D056091BB017091BC0180917A
:10154000BD019091BE0144E00E946C046FE571E022
:1015500080EC91E00E949D0561E671E080EC91E0F5
:101560000E949D056FE571E080EC91E00E949D0571
:1015700063E671E080EC91E00E949D056FE571E00B
:1015800080EC91E00E949D0561E671E080EC91E0C5
:101590000E949D056FE571E080EC91E00E949D0541
:1015A00065E671E080EC91E00E94890561E085E0EC
:1015B0000E94ED0785B5856085BD84EF84BD87B742
:1015C000806487BF80918A00836080938A0084EF63
:1015D00091E0A0E0B0E08093080390930903A0930A
:1015E0000A03B0930B0310920C0310920D03109298
:1015F0000E0310920F038091000390910103A091BC
:101600000203B09103038093040390930503A09316
:101610000603B09307030E94DA08609300037093F7
:101620000103809302039093030362E070E080E083
:1016300090E00E9429086AE070E080E090E00E945B
:10164000290885E68093110380911103833609F4FC
:1016500031C1853609F0BFC080910C0390910D0314
:10166000A0910E03B0910F030196A11DB11D8093AF
:101670000C0390930D03A0930E03B0930F034091BE
:1016800008035091090360910A0370910B03452BE5
:10169000462B472B29F4892B8A2B8B2B09F09BC0D7
:1016A0000E94DA080091FC021091FD022091FE02D6
:1016B0003091FF02DC01CB01801B910BA20BB30B1D
:1016C0004997A105B10538F463E070E080E090E04F
:1016D0000E942908E5CF0E94DA086093FC0270930B
:1016E000FD028093FE029093FF020E94DA086B01D4
:1016F0007C0167E671E080913C0390913D030E947C
:101700009D052AE041E050E060E070E080913C03FC
:1017100090913D030E9423046EE671E080913C03AA
:1017200090913D030E949D052AE0B701A60180919A
:101730003C0390913D030E94230460E771E0809197
:101740003C0390913D030E949D0580910003909180
:101750000103A0910203B0910303B701A601481B46
:10176000590B6A0B7B0B2AE080913C0390913D035F
:101770000E94230460E771E080913C0390913D0357
:101780000E949D0540910003509101036091020366
:10179000709103038091040390910503A0910603C7
:1017A000B0910703481B590B6A0B7B0B2AE0809111
:1017B0003C0390913D030E94230462E771E0809115
:1017C0003C0390913D030E94890564EF71E080E045
:1017D00090E00E9429086AE070E080E090E00E94BA
:1017E000290880911003882309F462C080913C038A
:1017F00090913D03DC01ED91FC910480F581E02D99
:101800000995882309F41DCF80913C0390913D03F5
:10181000DC01ED91FC910480F581E02D0995882390
:1018200009F40FCF80913C0390913D03DC01ED91D1
:10183000FC910680F781E02D09958836C9F180F585
:101840008835A1F1833601F70E94DA086093FC0223
:101850007093FD028093FE029093FF0269E771E0AE
:1018600080913C0390913D030E949D052AE041E058
:1018700050E060E070E080913C0390913D030E9455
:10188000230460E871E080913C0390913D030E9445
:101890009D0562E370E080E090E00E94290808C0A6
:1018A000813731F0863709F4CDCEAECF10921003D8
:1018B00083E6C8CE0E94DA086093000370930103A8
:1018C000809302039093030361E08AE10E94BD07C5
:1018D000212CB4E83B2EB0E14B2E512C18EE812E7A
:1018E00013E0912EA12CB12C0E94DA086B017C012F
:1018F00080914B03882309F490C02091440330E089
:10190000F901EC54FF4F8491F901E457FE4F149113
:10191000F901EF52FE4F0491002379F081110E94EA
:101920009307E02FF0E0EE0FFF1FEC55FF4FA5915E
:10193000B491EC911E2381E009F480E08170209144
:10194000490330914A03232B11F0B1E08B2790918A
:101950004C03981759F080934C03C0924E03D092D9
:101960004F03E0925003F092510357C040914E0351
:1019700050914F036091500370915103970186017C
:10198000041B150B260B370B409145035091460362
:10199000609147037091480340175107620773072E
:1019A00008F03BC090914D03981701F180934D03CF
:1019B0008823C1F08091520390915303A091540366
:1019C000B09155030196A11DB11D809352039093D0
:1019D0005303A0935403B093550382E493E00E9411
:1019E000D50604C082E493E00E94CC0680914D03AA
:1019F000882399F080914E0390914F03A09150035A
:101A0000B0915103B701A601481B590B6A0B7B0B20
:101A100021F082E493E00E94C1068DE592E00E94ED
:101A2000DA05181619060CF081C21A8E198E1C8E52
:101A30001B8E1E8E1D8E40E050E068E871E0CE01E6
:101A400049960E944D030E94A20297FD1EC08A3053
:101A50009105D9F089831A820D8D1E8D0F5F1F4F5E
:101A6000B801CE0149960E941403882361F3298DA1
:101A70003A8D8D8D9E8DBE016F5F7F4F820F931FBC
:101A80000E9427151E8F0D8FDECF68E871E0CE0112
:101A900001960E9473038D8D9E8D892B69F0098DAF
:101AA0001A8D69817A81C8010E942E15009721F054
:101AB0007C01E01AF10A03C0EE24EA94FE2CCE0168
:101AC00001960E946E03C98CDA8CC114D10409F40A
:101AD00040C04D8D5E8D41155105D9F1860138010B
:101AE0000F5F1F4FF3018081082E000C990B4F8F61
:101AF00058A30E941F104F8D58A1892B81F78A018E
:101B0000015011090C0D1D1DD8018C91082E000CDF
:101B1000990B0E941F10892B79F4A8014F5F5F4F2A
:101B2000461957095E8F4D8FC614D70458F4B30178
:101B3000C6010E94131506C00615170570F3015063
:101B40001109E2CFE98DFA8D8D8D9E8DE80FF91F79
:101B50001082FF24B3E0EB0EF11C0D8D1E8D0E15CF
:101B60001F0528F49E2D8F2D7801092F182F1C8A10
:101B70001B8A1E8A1D8A188E1F8A40E050E068E882
:101B800071E0CE0143960E944D038D8D9E8DE81627
:101B9000F90640F58017910708F48C01E98DFA8D5C
:101BA000E00FF11FD0801082698D7A8D6E0D7F1D40
:101BB0006115710569F0FB0101900020E9F731978B
:101BC000AF01461B570BCE0143960E944D0304C044
:101BD000CE0143960E943B03898D9A8DFC01E00F54
:101BE000F11FD082EF88F88C0B891C89E114F10475
:101BF00061F06DE370E0C8010E941C15009729F0A8
:101C0000801B910B019609F085C11E861D86188ADE
:101C10001F861A8A198A0115110531F0A701B8012A
:101C2000CE010D960E944D0389899A89892B09F46A
:101C300060C1ED85FE858081882309F45AC167E67D
:101C400071E0CE0101960E947303BE016F5F7F4F6A
:101C5000CE010D960E94DC02811116C06FE571E085
:101C6000CE0107960E947303BE01695F7F4FCE01CC
:101C70000D960E94DC0211E0811101C010E0CE013E
:101C800007960E946E0301C011E0CE0101960E94EA
:101C90006E03112319F087E591E016C062E571E04B
:101CA000CE0101960E947303BE016F5F7F4FCE018C
:101CB0000D960E94DC02182FCE0101960E946E0341
:101CC000112329F089E391E00E947A0212C164E3B2
:101CD00071E0CE0101960E947303BE016F5F7F4FDA
:101CE000CE010D960E94DC02811116C06FE271E0F8
:101CF000CE0107960E947303BE01695F7F4FCE013C
:101D00000D960E94DC0211E0811101C010E0CE01AD
:101D100007960E946E0301C011E0CE0101960E9459
:101D20006E03112331F1F2E0F093000162E370E001
:101D300080E090E00E94290880E887B9369A3699B9
:101D4000FECF24B185B130E0382BA0E0BAE00E948C
:101D5000C3119B01AC016AE05595479537952795CE
:101D60006A95D1F7A3ECB0E10E948111A50194011D
:101D700045C069E271E0CE0101960E947303BE0185
:101D80006F5F7F4FCE010D960E94DC02811116C05D
:101D900065E271E0CE0107960E947303BE01695FA0
:101DA0007F4FCE010D960E94DC0211E0811101C02F
:101DB00010E0CE0107960E946E0301C011E0CE0133
:101DC00001960E946E03112331F18EE587B962E01E
:101DD00070E080E090E00E942908369A3699FECFA4
:101DE00084B125B130E0322F2227A901330F660BD1
:101DF000770B9A01AB01282BC201B1010E94EA12B4
:101E0000CA01B9010E94510569E871E08DE592E0CF
:101E10000E9489056EC06CE171E0CE0101960E94BE
:101E20007303BE016F5F7F4FCE010D960E94DC02EF
:101E3000182FCE0101960E946E03112371F06DE8F8
:101E400071E08DE592E00E94890562E370E080E038
:101E500090E00E942908DE984CC06BE071E0CE0152
:101E600001960E947303BE016F5F7F4FCE010D96F6
:101E70000E94DC02182FCE0101960E946E031123EE
:101E800029F06EE170E080E090E031C069EF70E031
:101E9000CE0101960E947303BE016F5F7F4FCE019A
:101EA0000D960E94DC02182FCE0101960E946E034F
:101EB000112329F064E670E080E090E018C069EE3C
:101EC00070E0CE0101960E947303BE016F5F7F4FE9
:101ED000CE010D960E94DC02182FCE0101960E94C1
:101EE0006E03112341F068EC70E080E090E00E9406
:101EF0003A0110E001C012E0CE010D960E946E037F
:101F0000111103C085E891E007C0123019F481E790
:101F100091E002C08BE691E00E947A02CE014396E6
:101F20000E946E03CE0149960E946E030E948406B1
:101F3000DBCCE0ECF1E01382128248EE53E060E08B
:101F400070E044835583668377838CE091E09183CE
:101F5000808328E930E03587248729E930E0378716
:101F600026872BE930E0318B208B2AE930E0338B58
:101F7000228B2DE930E0358B248B2CE930E0378B38
:101F8000268B118E128E138E148EEDE5F2E01382E5
:101F9000128244835583668377839183808380E9AB
:101FA00090E09587848789E290E0978786878BE227
:101FB00090E0918B808B8AE290E0938B828B85E915
:101FC00090E0958B848B8CE290E0978B868B118EC2
:101FD000128E138E148EEAEFF2E0168217821086AC
:101FE0001186128613861486158616861786108A21
:101FF000118A128A138A148A158AE2E4F3E08CE1CA
:1020000091E091838083128213821482158216825A
:1020100082E090E09087878311861286138614866B
:10202000158616861786108A118A128A138A158ACF
:10203000148A178A168A118E108E089508959111A8
:102040000C943810803219F089508550C8F70895E3
:10205000FB01DC0105900D920020E1F70895FC01E1
:1020600005900020E9F7809590958E0F9F1F0895A9
:102070009927882708950E947D1008F481E008952B
:10208000E89409C097FB3EF4909580957095619512
:102090007F4F8F4F9F4F9923A9F0F92F96E9BB27C8
:1020A0009395F695879577956795B795F111F8CF44
:1020B000FAF4BB0F11F460FF1BC06F5F7F4F8F4FAF
:1020C0009F4F16C0882311F096E911C0772321F0A5
:1020D0009EE8872F762F05C0662371F096E8862F3D
:1020E00070E060E02AF09A95660F771F881FDAF794
:1020F000880F9695879597F90895990F0008550FC1
:10210000AA0BE0E8FEEF16161706E807F907C0F07D
:1021100012161306E407F50798F0621B730B840B85
:10212000950B39F40A2661F0232B242B252B21F45F
:1021300008950A2609F4A140A6958FEF811D811DFF
:1021400008950E94B4100C9425110E94171138F0C4
:102150000E941E1120F0952311F00C940E110C9486
:10216000141111240C9459110E94361170F3959F8B
:10217000C1F3950F50E0551F629FF001729FBB277E
:10218000F00DB11D639FAA27F00DB11DAA1F649F1A
:102190006627B00DA11D661F829F2227B00DA11DCD
:1021A000621F739FB00DA11D621F839FA00D611D53
:1021B000221F749F3327A00D611D231F849F600D74
:1021C000211D822F762F6A2F11249F5750409AF09D
:1021D000F1F088234AF0EE0FFF1FBB1F661F771F29
:1021E000881F91505040A9F79E3F510580F00C94F4
:1021F0000E110C9459115F3FE4F3983ED4F3869589
:1022000077956795B795F795E7959F5FC1F7FE2B93
:10221000880F911D9695879597F9089597F99F676F
:1022200080E870E060E008959FEF80EC089500245E
:102230000A941616170618060906089500240A942B
:1022400012161306140605060895092E0394000CB1
:1022500011F4882352F0BB0F40F4BF2B11F460FF40
:1022600004C06F5F7F4F8F4F9F4F089557FD905869
:10227000440F551F59F05F3F71F04795880F97FB4A
:10228000991F61F09F3F79F0879508951216130604
:102290001406551FF2CF4695F1DF08C01616170633
:1022A0001806991FF1CF8695710561050894089568
:1022B000E894BB2766277727CB0197F90895A1E219
:1022C0001A2EAA1BBB1BFD010DC0AA1FBB1FEE1FB0
:1022D000FF1FA217B307E407F50720F0A21BB30BFB
:1022E000E40BF50B661F771F881F991F1A9469F777
:1022F00060957095809590959B01AC01BD01CF01D3
:1023000008950E94C311A59F900DB49F900DA49FA6
:10231000800D911D112408952F923F924F925F924C
:102320006F927F928F929F92AF92BF92CF92DF92E5
:10233000EF92FF920F931F93CF93DF93CDB7DEB74A
:10234000CA1BDB0B0FB6F894DEBF0FBECDBF0994DE
:102350002A88398848885F846E847D848C849B8435
:10236000AA84B984C884DF80EE80FD800C811B8143
:10237000AA81B981CE0FD11D0FB6F894DEBF0FBE72
:10238000CDBFED010895A29FB001B39FC001A39FEF
:10239000700D811D1124911DB29F700D811D11249E
:1023A000911D08955058BB27AA270E94EA110C944A
:1023B00025110E94171138F00E941E1120F039F4E7
:1023C0009F3F19F426F40C9414110EF4E095E7FBEA
:1023D0000C940E11E92F0E94361158F3BA176207B8
:1023E00073078407950720F079F4A6F50C9458112B
:1023F0000EF4E0950B2EBA2FA02D0B01B901900120
:102400000C01CA01A0011124FF27591B99F0593F63
:1024100050F4503E68F11A16F040A22F232F342FAB
:102420004427585FF3CF469537952795A795F040F9
:102430005395C9F77EF41F16BA0B620B730B840B0E
:10244000BAF09150A1F0FF0FBB1F661F771F881FC6
:10245000C2F70EC0BA0F621F731F841F48F487951E
:1024600077956795B795F7959E3F08F0B0CF939510
:10247000880F08F09927EE0F9795879508950E9489
:1024800053120C9425110E941E1158F00E9417112E
:1024900040F029F45F3F29F00C940E1151110C9477
:1024A00059110C9414110E94361168F39923B1F359
:1024B000552391F3951B550BBB27AA27621773076A
:1024C000840738F09F5F5F4F220F331F441FAA1FFE
:1024D000A9F335D00E2E3AF0E0E832D091505040BA
:1024E000E695001CCAF72BD0FE2F29D0660F771F68
:1024F000881FBB1F261737074807AB07B0E809F04E
:10250000BB0B802DBF01FF2793585F4F3AF09E3FD2
:10251000510578F00C940E110C9459115F3FE4F3BF
:10252000983ED4F3869577956795B795F7959F5F15
:10253000C9F7880F911D9695879597F90895E1E061
:10254000660F771F881FBB1F621773078407BA07C0
:1025500020F0621B730B840BBA0BEE1F88F7E0951B
:1025600008950E943E1188F09F5798F0B92F99273F
:10257000B751B0F0E1F0660F771F881F991F1AF06E
:10258000BA95C9F714C0B13091F00E945811B1E06A
:1025900008950C945811672F782F8827B85F39F069
:1025A000B93FCCF3869577956795B395D9F73EF407
:1025B00090958095709561957F4F8F4F9F4F0895AF
:1025C0000E947D1008F48FEF08950E947D10880B03
:1025D000990B0895052E97FB1EF400940E94011399
:1025E00057FD07D00E945F1107FC03D04EF40C94F6
:1025F000011350954095309521953F4F4F4F5F4FB8
:10260000089590958095709561957F4F8F4F9F4F5E
:102610000895EE0FFF1F0590F491E02D0994CF93DC
:10262000DF938230910510F482E090E0E0917C032A
:10263000F0917D0320E030E0C0E0D0E0309711F170
:102640004081518148175907C0F04817590761F474
:1026500082819381209719F09B838A832BC090936A
:102660007D0380937C0326C02115310519F04217A4
:10267000530718F49A01BE01DF01EF010280F381D4
:10268000E02DDCCF2115310509F1281B390B243051
:10269000310590F412968D919C91139761157105F7
:1026A00021F0FB019383828304C090937D03809388
:1026B0007C03FD01329644C0FD01E20FF31F8193BC
:1026C0009193225031092D933C933AC020917A0383
:1026D00030917B03232B41F42091040130910501BB
:1026E00030937B0320937A03209102013091030100
:1026F0002115310541F42DB73EB7409106015091A7
:102700000701241B350BE0917A03F0917B03E2175C
:10271000F307A0F42E1B3F0B2817390778F0AC0104
:102720004E5F5F4F2417350748F04E0F5F1F5093E1
:102730007B0340937A038193919302C0E0E0F0E041
:10274000CF01DF91CF9108950F931F93CF93DF9324
:10275000009709F48CC0FC01329713821282009119
:102760007C0310917D030115110581F420813181D5
:10277000820F931F20917A0330917B03281739072A
:1027800079F5F0937B03E0937A0371C0D80140E0C0
:1027900050E0AE17BF0750F412962D913C9113975D
:1027A000AD012115310509F1D901F3CF9D01DA0100
:1027B0003383228360817181860F971F821793076D
:1027C00069F4EC0128813981260F371F2E5F3F4FB6
:1027D000318320838A819B8193838283452B29F4D3
:1027E000F0937D03E0937C0342C01396FC93EE9339
:1027F0001297ED01499159919E01240F351FE2175F
:10280000F30771F480819181840F951F02961196D0
:102810009C938E938281938113969C938E931297AF
:10282000E0E0F0E0D80112968D919C91139700970B
:1028300019F0F8018C01F6CF8D919C9198012E5FD3
:102840003F4F820F931F20917A0330917B0328170B
:10285000390769F4309729F410927D0310927C03B4
:1028600002C01382128210937B0300937A03DF91DC
:10287000CF911F910F910895A0E0B0E0E2E4F4E160
:102880000C949011EC01009721F4CB010E940F13DE
:10289000B8C0FC01E60FF71F9C0122503109E21776
:1028A000F30708F4ACC0D9010D911C9111970617DC
:1028B0001707B0F00530110508F49FC0C801049750
:1028C0008617970708F499C002501109061B170BC9
:1028D000019311936D937C93CF010E94A4138DC03B
:1028E0005B01A01AB10A4C01800E911EA0917C03DD
:1028F000B0917D0340E050E0E12CF12C109709F4F9
:102900004AC0A815B905D1F56D907C901197630167
:1029100082E0C80ED11CCA14DB0480F1A3014A195D
:102920005B096A0182E0C80ED11C1296BC90129716
:102930001396AC91B5E0CB16D10440F0B282A383DC
:1029400051834083D9016D937C930AC00E5F1F4F62
:10295000C301800F911FF90191838083EB2DFA2F22
:10296000E114F10431F0D7011396FC93EE93129722
:1029700044C0F0937D03E0937C033FC08D919C9114
:1029800011974817590708F4AC017D0112960D9074
:10299000BC91A02DB3CF80917A0390917B038815D1
:1029A0009905E1F446175707C8F480910201909108
:1029B0000301009741F48DB79EB7409106015091F5
:1029C0000701841B950BE817F907C8F4F0937B0304
:1029D000E0937A03F901718360830FC0CB010E94F9
:1029E0000F137C01009759F0A801BE010E94131536
:1029F000CE010E94A413C70104C0CE0102C080E032
:102A000090E0CDB7DEB7EEE00C94AC1181E090E041
:102A1000F8940C9448159111089581548A5108F442
:102A2000805E855A0895FB01DC0102C001900D9281
:102A300041505040D8F70895FC018191861721F04C
:102A40008823D9F7992708953197CF010895FB017D
:102A5000DC0101900D920020E1F70895FB015191F6
:102A60005523A9F0BF01DC014D9145174111E1F754
:102A700059F4CD010190002049F04D9140154111CC
:102A8000C9F3FB014111EFCF81E090E00197089578
:102A900011E0CDE0D1E004C0FE010E9409132196AF
:0A2AA000CE30D107C9F7F894FFCF3C
:102AAA0001FF00007E038000000000001B063F09B2
:102ABA00DA05B805CC056206000000003E09DF060B
:102ACA00D506CC06C106564D4450565F317C315F5F
:102ADA00564D4450560D0A00506F77657220557056
:102AEA000041542B444D4F434F4E4E4543540041F1
:102AFA00542B444D4F53455447524F55503D002C8B
:102B0A0000300032003100564D4450455F003A32E1
:102B1A003A005F564D44504500564D4450435F00BD
:102B2A005F564D4450430D0A00206D560053687598
:102B3A0074646F776E2E2E2E006E616E00696E665B
:102B4A00006F7666005054542068696768005054D4
:062B5A0054206C6F7700AF
:00000001FF
