:100000000C940E010C9436010C9436010C943601BC
:100010000C9436010C9436010C9436010C94360184
:100020000C9436010C947F030C94A1050C943601BA
:100030000C9436010C9436010C9436010C94360164
:100040000C9457050C9436010C94F5040C94CF04D1
:100050000C9436010C9436010C9436010C94360144
:100060000C9436010C9436010C9436010C94360134
:100070000C9436010C9436010C94A9040C9483045E
:100080000C9436010C9436010C94360178028902E6
:1000900089026A026D0271027402890289027C027D
:1000A0008002840200003A00370034003100220050
:1000B0006100640000003900360033003000210088
:1000C000200063000000000A0B0C0000000000008C
:1000D0000104050600000000000000000000000010
:1000E0000000000000000000000000000000000010
:1000F00000000000000000000044454255475F42F8
:100100004545505F4C4F4E470044454255475F427E
:100110004545505F4D454449554D0044454255477E
:100120005F424545505F53484F525400504F57452A
:10013000524F46460033563300564F4C543200421D
:1001400041545400564F4C540041503531302046F4
:1001500069726D7761726520627920444F394A482F
:100160004200494E464F00302E312D6465760056D0
:10017000455253494F4E00564552004552524F5238
:10018000004552524F522028556E6B6E6F776E208D
:10019000436D6429004F4B0041542B0001020408B9
:1001A0001020408001020408102040800810010245
:1001B0000408102040800102010204081020408041
:1001C00004804020100804020101020408102040AD
:1001D0008000003B003800350032002300620065DB
:1001E00000050505050505050502020202020202D9
:1001F00002070704040404040404040707030303B8
:1002000003030303030701010101010101010606C4
:100210000606060606060200110E100E11241FBE69
:10022000CFEFD0E1DEBFCDBF23E0A8E8B1E001C051
:100230001D92AC32B207E1F711E0A0E0B1E0E4E7D3
:10024000F7E202C005900D92A838B107D9F711E086
:10025000CDE0D1E004C02197FE010E946E11CC30A8
:10026000D107C9F70E9458090C94AD130C940000F3
:10027000CF92DF92EF92FF920F931F93CF93DF9372
:100280006C017A018B01C0E0D0E0CE15DF0589F06A
:10029000D8016D918D01D601ED91FC910190F08115
:1002A000E02DC6010995892B11F47E0102C021962B
:1002B000ECCFC701DF91CF911F910F91FF90EF908D
:1002C000DF90CF9008950895FC01A089B1898C91A9
:1002D000A689B78982FD0FC09C91818D8F5F8F7336
:1002E000228D821749F0218DDF01A20FB11D5D968D
:1002F0009C93818F08958C910895FC01918D828D3E
:10030000981761F0828DDF01A80FB11D5D968C9169
:10031000928D9F5F9F73928F90E008958FEF9FEF74
:100320000895FC01918D828D981731F0828DE80F30
:10033000F11D858D90E008958FEF9FEF0895FC01EA
:10034000918D228D892F90E0805C9F4F821B9109B7
:100350008F73992708958DEC91E00E949F0121E011
:10036000892B09F420E0822F08958AE692E00E940A
:100370009F0121E0892B09F420E0822F0895FC01E0
:10038000848DDF01A80FB11DA35ABF4F2C91848D1E
:1003900090E001968F739927848FA689B7892C9353
:1003A000A089B1898C9180648C93938D848D9813EE
:1003B00006C00288F389E02D80818F7D80830895B7
:1003C000EF92FF920F931F93CF93DF93EC0181E0A5
:1003D000888F9B8D8C8D981305C0E889F989808161
:1003E00085FD24C0F62E0B8D10E00F5F1F4F0F739D
:1003F0001127E02E8C8DE8120CC00FB607FCFACF47
:10040000E889F989808185FFF5CFCE010E94BF017F
:10041000F1CF8B8DFE01E80FF11DE35AFF4FF08203
:100420000B8FEA89FB898081806207C0EE89FF8992
:100430006083E889F98980818064808381E090E02D
:10044000DF91CF911F910F91FF90EF900895CF937F
:10045000DF93EC01888D8823C9F0EA89FB898081CC
:1004600085FD05C0A889B9898C9186FD0FC00FB69E
:1004700007FCF5CF808185FFF2CFA889B9898C91DF
:1004800085FFEDCFCE010E94BF01E7CFDF91CF9175
:10049000089580E090E0892B21F00E94B501811140
:1004A00009C080E090E0892B51F00E94AB018111DE
:1004B00004C008950E940000F4CF0C940000089539
:1004C00090E0FC013197EC30F10518F5EA5BFF4F45
:1004D0000C946E118FB58F7702C08FB58F7D8FBD55
:1004E00008958FB5877FFBCF85B58F7D85BD089536
:1004F00083B78F7D83BF089580918B008F7707C06E
:1005000080918B008F7D03C080918B00877F8093CB
:100510008B0008951F93CF93DF93282F30E0F901CC
:10052000EC53FF4F8491F901E456FE4FD491F90149
:10053000EF51FE4FC491CC23C9F0162F81110E94B8
:100540006002EC2FF0E0EE0FFF1FEF52FE4FA5917F
:10055000B4918FB7F894111105C09C91ED2FE095DF
:10056000E92302C0EC91ED2BEC938FBFDF91CF918B
:100570001F9108953FB7F8948091B4019091B5010F
:10058000A091B601B091B70122B706B600FE05C032
:100590002F3F19F00196A11DB11D3FBFBA2FA92F02
:1005A000982F8827820F911DA11DB11DBC01CD017F
:1005B00042E0660F771F881F991F4A95D1F708956B
:1005C0008F929F92AF92BF92CF92DF92EF92FF9263
:1005D0006B017C010E94BA024B015C01C114D10481
:1005E000E104F104F1F00E94BA02DC01CB018819A8
:1005F0009909AA09BB09883E9340A105B10570F38A
:1006000021E0C21AD108E108F10888EE880E83E0E3
:10061000981EA11CB11CC114D104E104F10419F706
:10062000DDCFFF90EF90DF90CF90BF90AF909F9085
:100630008F900895DC015896ED91FC915997309771
:1006400019F0CB01BA0109940895DC015696ED9199
:10065000FC915797309709F009940895DC0154965E
:10066000ED91FC915597309709F009940895CF9337
:10067000DF93CDB7DEB7C054D1090FB6F894DEBF13
:100680000FBECDBF61E087E10E948A026AE070E0A0
:1006900080E090E00E94E0021092890010928800B1
:1006A00084E080938B0084EF84BD85B5856085BD33
:1006B000FE01319680E081938F5F8032E1F789817E
:1006C0008093920181E080938F0184EF84BD85B592
:1006D000856085BD60ED77E080E090E00E94E002FB
:1006E00060E087E1C05CDF4F0FB6F894DEBF0FBE5D
:1006F000CDBFDF91CF910C948A020C9409121F9206
:100700000F920FB60F9211242F933F934F935F9345
:100710006F937F938F939F93AF93BF93EF93FF93C9
:100720008091C9019091CA01A091CB01B091CC01F7
:10073000892B8A2B8B2B51F18091C601E091C70147
:10074000F091C8019081892780838091C90190919F
:10075000CA01A091CB01B091CC01181619061A0656
:100760001B06A4F58091C9019091CA01A091CB010B
:10077000B091CC010197A109B1098093C90190936F
:10078000CA01A093CB01B093CC0120C0809101019C
:10079000E6E1F2E0E4919FEF90930101E13081F016
:1007A00068F0E23081F497B79F7797BF90E495BDEA
:1007B00095B5987F946095BD13BC05C017BE03C066
:1007C00097B79F7E97BF60E00E948A02FF91EF91EA
:1007D000BF91AF919F918F917F916F915F914F9159
:1007E0003F912F910F900FBE0F901F90189561159C
:1007F000710579F0FB0101900020E9F73197AF0115
:10080000461B570BDC01ED91FC910280F381E02D3A
:10081000099480E090E008954F925F926F927F92EA
:10082000EF92FF920F931F93CF93DF93CDB7DEB775
:10083000A1970FB6F894DEBF0FBECDBF7C01FA01C1
:10084000CB0119A2223008F42AE08E010F5D1F4F60
:10085000422E512C612C712CBF01A30192010E94E8
:100860002D11F901CA01015011096A3014F4605DBB
:1008700001C0695CD8016C93232B242B252B61F7D5
:10088000B801C7010E94F703A1960FB6F894DEBF26
:100890000FBECDBFDF91CF911F910F91FF90EF90D1
:1008A0007F906F905F904F9008950F931F93CF9319
:1008B000DF93EC010E94F7038C0166E271E0CE0148
:1008C0000E94F703800F911FDF91CF911F910F912D
:1008D0000895613D774081059105A0F080918E01DA
:1008E000811110C081E080938E0164EF71E080E09F
:1008F00090E00E941B0669E271E08AE692E00E94A5
:100900005504DE9808951F920F920FB60F9211248E
:100910002F933F934F935F936F937F938F939F9307
:10092000AF93BF93EF93FF938DEC91E00E94BF01D3
:10093000FF91EF91BF91AF919F918F917F916F91B7
:100940005F914F913F912F910F900FBE0F901F908D
:1009500018951F920F920FB60F9211242F933F9369
:100960004F935F936F937F938F939F93AF93BF93B7
:10097000EF93FF938DEC91E00E946401FF91EF9162
:10098000BF91AF919F918F917F916F915F914F91A7
:100990003F912F910F900FBE0F901F9018951F92AF
:1009A0000F920FB60F9211242F933F934F935F93A3
:1009B0006F937F938F939F93AF93BF93EF93FF9327
:1009C0008AE692E00E94BF01FF91EF91BF91AF9143
:1009D0009F918F917F916F915F914F913F912F9157
:1009E0000F900FBE0F901F9018951F920F920FB689
:1009F0000F9211242F933F934F935F936F937F93A5
:100A00008F939F93AF93BF93EF93FF938AE692E008
:100A10000E946401FF91EF91BF91AF919F918F91DF
:100A20007F916F915F914F913F912F910F900FBEEA
:100A30000F901F901895CF93DF9390E0FC01E45640
:100A4000FE4F2491FC01EF51FE4F8491882361F108
:100A500090E0880F991FFC01EC55FF4FC591D49190
:100A6000FC01EF52FE4FA591B491611109C09FB7EF
:100A7000F8948881209582238883EC912E230BC0E3
:100A8000623061F49FB7F8943881822F8095832378
:100A90008883EC912E2B2C939FBF06C08FB7F894C0
:100AA000E8812E2B28838FBFDF91CF9108951F926D
:100AB0000F920FB60F9211242F933F938F939F9312
:100AC000AF93BF938091C2019091C301A091C401E3
:100AD000B091C5013091B30125E1230F2D3720F4EA
:100AE0000196A11DB11D05C028E9230F0296A11D85
:100AF000B11D2093B3018093C2019093C301A093D1
:100B0000C401B093C5018091B4019091B501A09149
:100B1000B601B091B7010196A11DB11D8093B4013A
:100B20009093B501A093B601B093B701BF91AF9177
:100B30009F918F913F912F910F900FBE0F901F901B
:100B400018951F920F920FB60F9211242F933F9377
:100B50004F935F936F937F938F939F93AF93BF93C5
:100B6000EF93FF9384EF84BD8091B2019091910146
:100B7000E82FF0E0EE56FE4F208130E0092E02C053
:100B8000359527950A94E2F720FD20C02091900129
:100B900021110EC028E630E03093870020938600B4
:100BA000309383002093820021E0209390010EC0B7
:100BB000213061F42FEB30E03093870020938600E2
:100BC0003093830020938200109290019F5F9830B1
:100BD00018F4909391011BC0109291018F5F809344
:100BE000B2018132A0F068E671E08AE692E00E94EC
:100BF000550410928F0115BC84EF84BD80918B0049
:100C00008B7F80938B00109291011092B201FF9123
:100C1000EF91BF91AF919F918F917F916F915F9174
:100C20004F913F912F910F900FBE0F901F901895ED
:100C300008950E946B13FF920F931F93CF93DF933E
:100C400000D000D0CDB7DEB720910101283121F0CE
:100C50002F3F09F0C4C004C0E6E1F2E0049148C0AF
:100C600028E120930101E6E1F2E004910F3F09F44D
:100C7000B6C0013001F1023009F03AC015BC15BC14
:100C800025B5286025BD25B5216025BDE9EFF1E03A
:100C9000E491F0E0EE0FFF1FEF52FE4F25913491EB
:100CA0003093C8012093C701E4EBF1E0E491E093B5
:100CB000C60102E01FC01FBC1EBC2EB528602EBDA1
:100CC0002EB521602EBDE9EFF1E0E491F0E0EE0FEA
:100CD000FF1FEF52FE4F2591349130932303209351
:100CE0002203E4EBF1E0E491E093210301E002C090
:100CF00007FD75C09B01AC0161E088E129833A835F
:100D00004B835C830E941B0529813A814B815C8166
:100D1000002329F0023059F4E5EEFE2E02C072E7FE
:100D2000F72E10E085B5887F836085BD20C0013037
:100D300069F48EB5887F81608EBD2115310541052E
:100D40005105C1F16BECF62E1CE116C0033061F4C5
:100D500080918A00887F816080938A002115310507
:100D60004105510579F73BC09BECF92E1CE121159B
:100D700031054105510559F0A0EDB7E00E94C40FBF
:100D800028EE33E040E050E00E942D1103C02FEF29
:100D90003FEFA9010130A1F0023009F5F3BC209327
:100DA000C9013093CA014093CB015093CC0187B75E
:100DB000806814C02FEF3FEFA9018BECF82E1CE1E7
:100DC0008F2D912F9BBD8ABD209324033093250343
:100DD000409326035093270387B7806187BF0F9006
:100DE0000F900F900F90DF91CF911F910F91FF9077
:100DF0000895BC018DEC91E00C94F7034F925F9243
:100E00006F927F928F929F92AF92BF92CF92DF921A
:100E1000EF92FF926B017C01B42E9B01AC010E940A
:100E20002811882319F06BE771E027C026013701EC
:100E3000E89477F82FEF3FEF4FE75FE7C301B20188
:100E40000E94281181110DC02FEF3FEF4FE75FE7A0
:100E5000C301B2010E949D0E18161CF46FE771E0E9
:100E60000CC02FEF3FEF4FE75FE4C701B6010E94D0
:100E70002311181694F463E871E08DEC91E0FF9073
:100E8000EF90DF90CF90BF90AF909F908F907F902A
:100E90006F905F904F900C94F7032FEF3FEF4FE769
:100EA0005FECC701B6010E949D0E87FDE4CF20E0F4
:100EB00030E0A901C701B6010E949D0E87FF11C055
:100EC000E091CD01F091CE010190F081E02D6DE235
:100ED0008DEC91E009954C01F7FAF094F7F8F09455
:100EE00002C0812C912CA12C60E070E080E09FE397
:100EF000AB1441F020E030E040E251E40E94821067
:100F0000A394F6CF9B01AC01C701B6010E94161055
:100F10002B013C010E94F4106B017C010E94A20E87
:100F20009B01AC01C301B2010E9415102B013C01D1
:100F30002AE0B701A6018DEC91E00E940C047C012F
:100F4000E80CF91CBB2041F063E371E08DEC91E00B
:100F50000E94F703E80EF91EDB2CDD2031F120E0C2
:100F600030E040E251E4C301B2010E94030F2B01C3
:100F70003C010E94F4104B01A12CB12C2AE0B501D8
:100F8000A4018DEC91E00E940C04E80EF91EC5014D
:100F9000B4010E94A20E9B01AC01C301B2010E94E8
:100FA00015102B013C01DA94D8CFC701FF90EF90C8
:100FB000DF90CF90BF90AF909F908F907F906F9079
:100FC0005F904F9008950F931F93CF93DF938C0101
:100FD000C0E0D0E0F801EC0FFD1F6491662371F0D2
:100FE000E0916A02F0916B020190F081E02D8AE6B7
:100FF00092E00995892B11F02196ECCF66E271E021
:101000008AE692E00E94F7038C0F9D1FDF91CF913B
:101010001F910F910895CF92DF92EF92FF92CF939D
:10102000DF93AB01BC0177FF23C06A017B01E09134
:101030006A02F0916B020190F081E02D6DE28AE688
:1010400092E00995EC0144275527BA014C195D0936
:101050006E097F092AE08AE692E00E940C048C0F58
:101060009D1FDF91CF91FF90EF90DF90CF9008957B
:101070002AE08AE692E0DF91CF91FF90EF90DF9037
:10108000CF900C940C042FB7F8948091C2019091EA
:10109000C301A091C401B091C5012FBF809372021A
:1010A00090937302A0937402B0937502E0916A0268
:1010B000F0916B020680F781E02D8AE692E00995B7
:1010C00097FF26C02FB7F8948091C2019091C30179
:1010D000A091C401B091C5012FBF409172025091FF
:1010E00073026091740270917502841B950BA60BBC
:1010F000B70B40916E0250916F0260917002709137
:10110000710284179507A607B70780F28FEF9FEF4C
:101110000895EF92FF920F931F93CF93DF9386175B
:10112000970729F1FC0124813581FB014481558118
:1011300024173507F1F4232BD1F0DC01CD91DC919C
:10114000008111818991882391F0082E000C990B60
:101150000E9470137C01F80181918F01082E000C10
:10116000990B0E947013E816F90661F302C081E042
:1011700001C080E0DF91CF911F910F91FF90EF9020
:1011800008950F931F93CF93DF93EC01888199818A
:10119000009729F02A813B812617370788F48B01B5
:1011A0006F5F7F4F0E94A112009761F0998388833F
:1011B0001B830A832C813D81232B11F4FC011082B7
:1011C00081E001C080E0DF91CF911F910F910895E0
:1011D000CF93DF93EC0188819981009711F00E94F1
:1011E0000912198218821D821C821B821A82DF91C9
:1011F000CF910895EF92FF920F931F93CF93DF93B8
:10120000EC017B018A01BA010E94C108811104C06E
:10121000CE010E94E80807C01D830C83B7018881B6
:1012200099810E948C13CE01DF91CF911F910F9174
:10123000FF90EF900895FC01808191810C94091238
:10124000EF92FF920F931F93CF93DF93EC011982DC
:1012500018821B821A821D821C826115710509F198
:101260008B01CB010E948B0E7C01BC01CE010E9440
:10127000C108811109C0CE01DF91CF911F910F915B
:10128000FF90EF900C94E808FD82EC82B801888111
:101290009981DF91CF911F910F91FF90EF900C9466
:1012A000840EDF91CF911F910F91FF90EF900895E1
:1012B000CF93DF93CDB7DEB7A0970FB6F894DEBF1C
:1012C0000FBECDBF789483B7806483BF83B7886037
:1012D00083BF83B7846083BF87B7816087BF1EBC2D
:1012E0008EB582608EBD8EB581608EBD8FB58160FA
:1012F0008FBD85B5846085BD85B5806485BD8091D1
:101300008A00826080938A0080918A008160809345
:101310008A0080918B00816080938B00329A319A91
:101320003098379A1AB8D69ADE9A61E08AE10E941C
:101330001B0561E088E10E941B05E0917A02F091B3
:101340007B0222E02083E0917602F091770211E0A7
:101350001083E0917802F09179028FE780831092F8
:101360008202E0917E02F0917F0296E09083E0910C
:101370007C02F0917D02808180618083E0917C021B
:10138000F0917D02808188608083E0917C02F09101
:101390007D02808180688083E0917C02F0917D02F3
:1013A00080818F7D8083E091DD01F091DE012083DB
:1013B000E091D901F091DA011082E091DB01F09126
:1013C000DC018FEB80831092E501E091E101F09167
:1013D000E2019083E091DF01F091E0018081806182
:1013E0008083E091DF01F091E0018081886080835B
:1013F000E091DF01F091E001808180688083E091DD
:10140000DF01F091E00180818F7D808387E393E0AD
:1014100090931C0380931B0383E691E090931E033B
:1014200080931D0389E694E09093200380931F032B
:1014300089E28093090384E190E0A0E0B0E080932A
:101440000A0390930B03A0930C03B0930D0382E067
:1014500090E090930F0380930E0362E089E20E9474
:101460001B051093100365E371E08AE692E00E9489
:1014700055046EE371E08DEC91E00E9455041092EA
:10148000B80186E696EEA0E1B3E48093B9019093AB
:10149000BA01A093BB01B093BC018093BD019093AE
:1014A000BE01A093BF01B093C0011093C10161E0E0
:1014B00087E10E941B0561E087E20E941B0561E055
:1014C00087E20E948A0264EF71E080E090E00E946F
:1014D000E0028CE491E00E94F9064091B80150E0EE
:1014E00060E070E02AE08DEC91E00E940C048CE555
:1014F00091E00E94F9066091B9017091BA01809162
:10150000BB019091BC0144E00E94FE068CE591E095
:101510000E94F9066091BD017091BE018091BF01EA
:101520009091C00144E00E94FE068CE591E00E948B
:10153000F9068EE591E00E94F9068CE591E00E94A3
:10154000F90680E691E00E94F9068CE591E00E94A0
:10155000F9068EE591E00E94F9068CE591E00E9483
:10156000F90662E671E08DEC91E00E945504159A4F
:1015700084EF84BD87B7806487BF10928900109282
:10158000880083E080938A0080918A00886080933D
:101590008A008FE590E09093870080938600909377
:1015A00083008093820061E08AE10E948A02212CFC
:1015B000E4E83E2EE0E14E2E512CF8EE8F2EF3E0C3
:1015C0009F2EA12CB12C8FB7F894C090C201D0905F
:1015D000C301E090C401F090C5018FBF809110035A
:1015E000882309F490C02091090330E0F901EC53FD
:1015F000FF4F8491F901E456FE4F1491F901EF5128
:10160000FE4F0491002379F081110E946002E02FC7
:10161000F0E0EE0FFF1FEC54FF4FA591B491EC9159
:101620001E2381E009F480E0817020910E03309147
:101630000F03232B11F021E08227909111039817BB
:1016400059F080931103C0921303D0921403E092D7
:101650001503F092160357C04091130350911403E1
:10166000609115037091160397018601041B150BF9
:10167000260B370B40910A0350910B0360910C032A
:1016800070910D03401751076207730708F03BC0C4
:1016900090911203981701F1809312038823C1F0EF
:1016A0008091170390911803A0911903B0911A0328
:1016B0000196A11DB11D8093170390931803A09369
:1016C0001903B0931A0387E093E00E942E0304C02D
:1016D00087E093E00E94250380911203882399F00C
:1016E0008091130390911403A0911503B0911603F8
:1016F000B701A601481B590B6A0B7B0B21F087E051
:1017000093E00E941A038AE692E00E949F01181655
:1017100019060CF082C21A8E198E1C8E1B8E1E8E1C
:101720001D8E40E050E068E271E0CE0149960E94D3
:10173000FA080E94430897FD1EC08A309105D9F02F
:1017400089831A820D8D1E8D0F5F1F4FB801CE0148
:1017500049960E94C108882361F3298D3A8D8D8DA9
:101760009E8DBE016F5F7F4F820F931F0E948C136F
:101770001E8F0D8FDECF68E971E0CE0101960E94C9
:1017800020098D8D9E8D892B69F0E98CFA8C6981F9
:101790007A81C7010E949313009721F08C010E19E2
:1017A0001F0902C00FEF1FEFCE0101960E941B0917
:1017B000C98CDA8CC114D10409F443C04D8D5E8DFF
:1017C00041155105F1F1760137018FEFE81AF80A5A
:1017D000F3018081082E000C990B4F8F58A30E94B3
:1017E000940E4F8D58A1892B79F77A01F1E0EF1A09
:1017F000F108EC0CFD1CF7018081082E000C990B00
:101800000E94940E892B79F4A7014F5F5F4F461910
:1018100057095E8F4D8FC614D70460F4B301C6011B
:101820000E94781307C0E614F70470F321E0E21A6F
:10183000F108E1CFE98DFA8D8D8D9E8DE80FF91FAE
:10184000108211270D5F1F4FED8CFE8CE016F10604
:1018500028F4902F812F8701E92EF82E1C8A1B8AED
:101860001E8A1D8A188E1F8A40E050E068E271E0EF
:10187000CE0143960E94FA088D8D9E8D0817190798
:1018800040F58E159F0508F47C01E98DFA8DEE0D6B
:10189000FF1DD0801082698D7A8D600F711F6115D8
:1018A000710569F0FB0101900020E9F73197AF0164
:1018B000461B570BCE0143960E94FA0804C0CE0186
:1018C00043960E94E808898D9A8DFC01EE0DFF1D5C
:1018D000D082EF88F88C0B891C89E114F10461F047
:1018E0006DE370E0C8010E948113009729F0801B0E
:1018F000910B019609F085C11E861D86188A1F86E8
:101900001A8A198A0115110531F0A701B801CE0113
:101910000D960E94FA0889899A89892B09F460C179
:10192000ED85FE858081882309F45AC167E771E05F
:10193000CE0101960E942009BE016F5F7F4FCE014C
:101940000D960E948908811116C06FE671E0CE01E4
:1019500007960E942009BE01695F7F4FCE010D9658
:101960000E94890811E0811101C010E0CE010796A4
:101970000E941B0901C011E0CE0101960E941B09C3
:10198000112319F087E691E016C062E671E0CE01FE
:1019900001960E942009BE016F5F7F4FCE010D9618
:1019A0000E948908182FCE0101960E941B0911235D
:1019B00029F089E491E00E94E30712C164E471E038
:1019C000CE0101960E942009BE016F5F7F4FCE01BC
:1019D0000D960E948908811116C06FE371E0CE0157
:1019E00007960E942009BE01695F7F4FCE010D96C8
:1019F0000E94890811E0811101C010E0CE01079614
:101A00000E941B0901C011E0CE0101960E941B0932
:101A1000112331F122E02093000162E370E080E0C5
:101A200090E00E94E00280E887B9369A3699FECFAE
:101A300024B185B130E0382BA0E0BAE00E94061056
:101A40009B01AC016AE055954795379527956A95B6
:101A5000D1F7A3ECB0E10E94C40FA501940145C0E9
:101A600069E371E0CE0101960E942009BE016F5F1B
:101A70007F4FCE010D960E948908811116C065E343
:101A800071E0CE0107960E942009BE01695F7F4F79
:101A9000CE010D960E94890811E0811101C010E06D
:101AA000CE0107960E941B0901C011E0CE010196EC
:101AB0000E941B09112331F18EE587B962E070E0C5
:101AC00080E090E00E94E002369A3699FECF84B121
:101AD00025B130E0322F2227A901330F660B770B97
:101AE0009A01AB01282BC201B1010E944F11CA011A
:101AF000B9010E940B0864E671E08AE692E00E9458
:101B000055046EC06CE271E0CE0101960E9420097E
:101B1000BE016F5F7F4FCE010D960E948908182F7E
:101B2000CE0101960E941B09112371F069E271E058
:101B30008AE692E00E94550462E370E080E090E063
:101B40000E94E002DE984CC06BE171E0CE0101968C
:101B50000E942009BE016F5F7F4FCE010D960E944B
:101B60008908182FCE0101960E941B09112329F024
:101B70006EE170E080E090E031C069E071E0CE019C
:101B800001960E942009BE016F5F7F4FCE010D9626
:101B90000E948908182FCE0101960E941B0911236B
:101BA00029F064E670E080E090E018C069EF70E032
:101BB000CE0101960E942009BE016F5F7F4FCE01CA
:101BC0000D960E948908182FCE0101960E941B09CC
:101BD000112341F068EC70E080E090E00E941B0669
:101BE00010E001C012E0CE010D960E941B091111F8
:101BF00003C085E991E007C0123019F481E891E053
:101C000002C08BE791E00E94E307CE0143960E9459
:101C10001B09CE0149960E941B090E944902D3CCA0
:101C20000895EDECF1E01382128248EE53E060E09B
:101C300070E044835583668377838CE091E09183E1
:101C4000808328E930E03587248729E930E0378729
:101C500026872BE930E0318B208B2AE930E0338B6B
:101C6000228B2DE930E0358B248B2CE930E0378B4B
:101C7000268B118E128E138E148EEAE6F2E01382FA
:101C8000128244835583668377839183808380E9BE
:101C900090E09587848789E290E0978786878BE23A
:101CA00090E0918B808B8AE290E0938B828B85E928
:101CB00090E0958B848B8CE290E0978B868B118ED5
:101CC000128E138E148EE7E0F3E08CE191E09183A5
:101CD00080831282138214821582168282E090E041
:101CE000908787831186128613861486158616863A
:101CF0001786108A118A128A138A158A148A178AFB
:101D0000168A118E108E0895FB01DC0105900D924C
:101D10000020E1F70895FC0105900020E9F7809587
:101D200090958E0F9F1F089591110C94700F803223
:101D300019F089508550C8F708950E94DF0E08F405
:101D400081E00895E89409C097FB3EF49095809552
:101D5000709561957F4F8F4F9F4F9923A9F0F92F71
:101D600096E9BB279395F695879577956795B795EF
:101D7000F111F8CFFAF4BB0F11F460FF1BC06F5FD5
:101D80007F4F8F4F9F4F16C0882311F096E911C0E7
:101D9000772321F09EE8872F762F05C0662371F008
:101DA00096E8862F70E060E02AF09A95660F771F1C
:101DB000881FDAF7880F9695879597F90895990FF8
:101DC0000008550FAA0BE0E8FEEF16161706E80705
:101DD000F907C0F012161306E407F50798F0621B26
:101DE000730B840B950B39F40A2661F0232B242BFB
:101DF000252B21F408950A2609F4A140A6958FEF1A
:101E0000811D811D08950E94160F0C948A0F0E9457
:101E10007C0F38F00E94830F20F0952311F00C9472
:101E2000730F0C94790F11240C94BE0F0E949B0F1A
:101E300070F3959FC1F3950F50E0551F629FF0011D
:101E4000729FBB27F00DB11D639FAA27F00DB11D36
:101E5000AA1F649F6627B00DA11D661F829F2227BF
:101E6000B00DA11D621F739FB00DA11D621F839F46
:101E7000A00D611D221F749F3327A00D611D231F1C
:101E8000849F600D211D822F762F6A2F11249F576A
:101E900050409AF0F1F088234AF0EE0FFF1FBB1F6D
:101EA000661F771F881F91505040A9F79E3F51052C
:101EB00080F00C94730F0C94BE0F5F3FE4F3983ED8
:101EC000D4F3869577956795B795F795E7959F5FD6
:101ED000C1F7FE2B880F911D9695879597F9089568
:101EE00099278827089597F99F6780E870E060E058
:101EF00008959FEF80EC089500240A9416161706A3
:101F000018060906089500240A94121613061406EA
:101F100005060895092E0394000C11F4882352F04D
:101F2000BB0F40F4BF2B11F460FF04C06F5F7F4F05
:101F30008F4F9F4F089557FD9058440F551F59F0EC
:101F40005F3F71F04795880F97FB991F61F09F3FA6
:101F500079F087950895121613061406551FF2CFCF
:101F60004695F1DF08C0161617061806991FF1CF1F
:101F700086957105610508940895E894BB27662746
:101F80007727CB0197F908950E940610A59F900D21
:101F9000B49F900DA49F800D911D112408952F9240
:101FA0003F924F925F926F927F928F929F92AF92E9
:101FB000BF92CF92DF92EF92FF920F931F93CF9336
:101FC000DF93CDB7DEB7CA1BDB0B0FB6F894DEBFCD
:101FD0000FBECDBF09942A88398848885F846E84F3
:101FE0007D848C849B84AA84B984C884DF80EE803D
:101FF000FD800C811B81AA81B981CE0FD11D0FB646
:10200000F894DEBF0FBECDBFED010895A29FB001D1
:10201000B39FC001A39F700D811D1124911DB29F1C
:10202000700D811D1124911D08955058BB27AA27BA
:102030000E942D100C948A0F0E947C0F38F00E9491
:10204000830F20F039F49F3F19F426F40C94790F94
:102050000EF4E095E7FB0C94730FE92F0E949B0FA1
:1020600058F3BA17620773078407950720F079F4CD
:10207000A6F50C94BD0F0EF4E0950B2EBA2FA02DF3
:102080000B01B90190010C01CA01A0011124FF2725
:10209000591B99F0593F50F4503E68F11A16F04020
:1020A000A22F232F342F4427585FF3CF469537951F
:1020B0002795A795F0405395C9F77EF41F16BA0BE4
:1020C000620B730B840BBAF09150A1F0FF0FBB1F92
:1020D000661F771F881FC2F70EC0BA0F621F731FDB
:1020E000841F48F4879577956795B795F7959E3F38
:1020F00008F0B0CF9395880F08F09927EE0F9795C9
:10210000879508950E9496100C948A0F0E94830F61
:1021100058F00E947C0F40F029F45F3F29F00C94A6
:10212000730F51110C94BE0F0C94790F0E949B0FEA
:1021300068F39923B1F3552391F3951B550BBB27F6
:10214000AA2762177307840738F09F5F5F4F220F3B
:10215000331F441FAA1FA9F335D00E2E3AF0E0E832
:1021600032D091505040E695001CCAF72BD0FE2F7C
:1021700029D0660F771F881FBB1F26173707480710
:10218000AB07B0E809F0BB0B802DBF01FF279358C8
:102190005F4F3AF09E3F510578F00C94730F0C940A
:1021A000BE0F5F3FE4F3983ED4F38695779567952D
:1021B000B795F7959F5FC9F7880F911D96958795FD
:1021C00097F90895E1E0660F771F881FBB1F62171C
:1021D00073078407BA0720F0621B730B840BBA0BDA
:1021E000EE1F88F7E09508950E94A30F88F09F578F
:1021F00098F0B92F9927B751B0F0E1F0660F771F2B
:10220000881F991F1AF0BA95C9F714C0B13091F020
:102210000E94BD0FB1E008950C94BD0F672F782F79
:102220008827B85F39F0B93FCCF3869577956795E5
:10223000B395D9F73EF490958095709561957F4F51
:102240008F4F9F4F08950E94DF0E08F48FEF08957F
:102250000E94DF0E880B990B0895A1E21A2EAA1B8B
:10226000BB1BFD010DC0AA1FBB1FEE1FFF1FA21746
:10227000B307E407F50720F0A21BB30BE40BF50B43
:10228000661F771F881F991F1A9469F760957095CC
:10229000809590959B01AC01BD01CF010895052E5D
:1022A00097FB1EF400940E94661157FD07D00E9410
:1022B0002D1107FC03D04EF40C94661150954095F7
:1022C000309521953F4F4F4F5F4F089590958095E2
:1022D000709561957F4F8F4F9F4F0895EE0FFF1FB1
:1022E0000590F491E02D0994CF93DF93823091050E
:1022F00010F482E090E0E0912A03F0912B0320E0BB
:1023000030E0C0E0D0E0309711F1408151814817B2
:102310005907C0F04817590761F4828193812097CB
:1023200019F09B838A832BC090932B0380932A03FD
:1023300026C02115310519F04217530718F49A01E8
:10234000BE01DF01EF010280F381E02DDCCF21151A
:10235000310509F1281B390B2430310590F4129610
:102360008D919C9113976115710521F0FB01938369
:10237000828304C090932B0380932A03FD0132963D
:1023800044C0FD01E20FF31F819391932250310964
:102390002D933C933AC02091280330912903232B9D
:1023A00041F42091040130910501309329032093D9
:1023B000280320910201309103012115310541F4D8
:1023C0002DB73EB74091060150910701241B350BF4
:1023D000E0912803F0912903E217F307A0F42E1BE4
:1023E0003F0B2817390778F0AC014E5F5F4F241779
:1023F000350748F04E0F5F1F509329034093280381
:102400008193919302C0E0E0F0E0CF01DF91CF91A2
:1024100008950F931F93CF93DF93009709F48CC017
:10242000FC0132971382128200912A0310912B0330
:102430000115110581F420813181820F931F2091B4
:102440002803309129032817390779F5F0932903D8
:10245000E093280371C0D80140E050E0AE17BF07F9
:1024600050F412962D913C911397AD012115310531
:1024700009F1D901F3CF9D01DA0133832283608111
:102480007181860F971F8217930769F4EC012881E9
:102490003981260F371F2E5F3F4F318320838A817A
:1024A0009B8193838283452B29F4F0932B03E09344
:1024B0002A0342C01396FC93EE931297ED014991C3
:1024C00059919E01240F351FE217F30771F48081A3
:1024D0009181840F951F029611969C938E93828111
:1024E000938113969C938E931297E0E0F0E0D801CD
:1024F00012968D919C911397009719F0F8018C0119
:10250000F6CF8D919C9198012E5F3F4F820F931FC4
:1025100020912803309129032817390769F430974F
:1025200029F410922B0310922A0302C01382128204
:102530001093290300932803DF91CF911F910F91EE
:102540000895A0E0B0E0E7EAF2E10C94D30FEC01CB
:10255000009721F4CB010E947411B8C0FC01E60F72
:10256000F71F9C0122503109E217F30708F4ACC0B1
:10257000D9010D911C91119706171707B0F005307E
:10258000110508F49FC0C80104978617970708F43F
:1025900099C002501109061B170B019311936D93FB
:1025A0007C93CF010E9409128DC05B01A01AB10A71
:1025B0004C01800E911EA0912A03B0912B0340E0A4
:1025C00050E0E12CF12C109709F44AC0A815B90588
:1025D000D1F56D907C901197630182E0C80ED11CFB
:1025E000CA14DB0480F1A3014A195B096A0182E085
:1025F000C80ED11C1296BC9012971396AC91B5E000
:10260000CB16D10440F0B282A38351834083D90119
:102610006D937C930AC00E5F1F4FC301800F911F03
:10262000F90191838083EB2DFA2FE114F10431F04D
:10263000D7011396FC93EE93129744C0F0932B03AB
:10264000E0932A033FC08D919C9111974817590739
:1026500008F4AC017D0112960D90BC91A02DB3CF72
:10266000809128039091290388159905E1F4461774
:102670005707C8F48091020190910301009741F43B
:102680008DB79EB74091060150910701841B950BB1
:10269000E817F907C8F4F0932903E0932803F90138
:1026A000718360830FC0CB010E9474117C0100977D
:1026B00059F0A801BE010E947813CE010E940912B0
:1026C000C70104C0CE0102C080E090E0CDB7DEB704
:1026D000EEE00C94EF0F81E090E0F8940C94AD13D1
:1026E0009111089581548A5108F4805E855A0895A5
:1026F000FB01DC0102C001900D9241505040D8F71F
:102700000895FC018191861721F08823D9F7992734
:1027100008953197CF010895FB01DC0101900D92DE
:102720000020E1F70895FB0151915523A9F0BF0165
:10273000DC014D9145174111E1F759F4CD010190AC
:10274000002049F04D9140154111C9F3FB014111A1
:10275000EFCF81E090E00197089511E0CDE0D1E066
:1027600004C0FE010E946E112196CE30D107C9F738
:04277000F894FFCF0B
:1027740001FF00002C03800000000000E00138018C
:102784009F017D01910127020000000018067D03CE
:102794002E0325031A030D0A0053687574646F77BA
:1027A4006E2E2E2E00506F776572205570004154A6
:1027B4002B444D4F434F4E4E4543540041542B44FC
:1027C4004D4F53455447524F55503D002C00300057
:1027D40032003100206D56004275666665722065D0
:1027E4006E642072656163686564006E616E006981
:0827F4006E66006F76660000BE
:00000001FF
